{
  "contractName": "GamePot",
  "abi": [
    {
      "inputs": [
        {
          "internalType": "address payable",
          "name": "_companyWallet",
          "type": "address"
        }
      ],
      "stateMutability": "nonpayable",
      "type": "constructor"
    },
    {
      "inputs": [],
      "name": "companyWallet",
      "outputs": [
        {
          "internalType": "address payable",
          "name": "",
          "type": "address"
        }
      ],
      "stateMutability": "view",
      "type": "function"
    },
    {
      "inputs": [],
      "name": "lastWithdrawal",
      "outputs": [
        {
          "internalType": "uint256",
          "name": "",
          "type": "uint256"
        }
      ],
      "stateMutability": "view",
      "type": "function"
    },
    {
      "inputs": [],
      "name": "potAmount",
      "outputs": [
        {
          "internalType": "uint256",
          "name": "",
          "type": "uint256"
        }
      ],
      "stateMutability": "view",
      "type": "function"
    },
    {
      "inputs": [],
      "name": "deposit",
      "outputs": [],
      "stateMutability": "payable",
      "type": "function"
    },
    {
      "inputs": [
        {
          "internalType": "address payable",
          "name": "winner",
          "type": "address"
        }
      ],
      "name": "withdraw",
      "outputs": [],
      "stateMutability": "nonpayable",
      "type": "function"
    }
  ],
  "bytecode": "0x608060405234801561001057600080fd5b50604051610881380380610881833981810160405281019061003291906100e2565b806000806101000a81548173ffffffffffffffffffffffffffffffffffffffff021916908373ffffffffffffffffffffffffffffffffffffffff160217905550426002819055505061010f565b600080fd5b600073ffffffffffffffffffffffffffffffffffffffff82169050919050565b60006100af82610084565b9050919050565b6100bf816100a4565b81146100ca57600080fd5b50565b6000815190506100dc816100b6565b92915050565b6000602082840312156100f8576100f761007f565b5b6000610106848285016100cd565b91505092915050565b6107638061011e6000396000f3fe60806040526004361061004a5760003560e01c80631dd300ce1461004f5780631ec32d151461007a5780634628df65146100a557806351cff8d9146100d0578063d0e30db0146100f9575b600080fd5b34801561005b57600080fd5b50610064610103565b604051610071919061037e565b60405180910390f35b34801561008657600080fd5b5061008f610109565b60405161009c91906103da565b60405180910390f35b3480156100b157600080fd5b506100ba61012d565b6040516100c7919061037e565b60405180910390f35b3480156100dc57600080fd5b506100f760048036038101906100f29190610426565b610133565b005b610101610307565b005b60025481565b60008054906101000a900473ffffffffffffffffffffffffffffffffffffffff1681565b60015481565b60008054906101000a900473ffffffffffffffffffffffffffffffffffffffff1673ffffffffffffffffffffffffffffffffffffffff163373ffffffffffffffffffffffffffffffffffffffff16146101c1576040517f08c379a00000000000000000000000000000000000000000000000000000000081526004016101b8906104d6565b60405180910390fd5b620151806002546101d29190610525565b421015610214576040517f08c379a000000000000000000000000000000000000000000000000000000000815260040161020b906105cb565b60405180910390fd5b60006064600560015461022791906105eb565b610231919061065c565b9050600081600154610243919061068d565b905060008054906101000a900473ffffffffffffffffffffffffffffffffffffffff1673ffffffffffffffffffffffffffffffffffffffff166108fc839081150290604051600060405180830381858888f193505050501580156102ab573d6000803e3d6000fd5b508273ffffffffffffffffffffffffffffffffffffffff166108fc829081150290604051600060405180830381858888f193505050501580156102f2573d6000803e3d6000fd5b50426002819055506000600181905550505050565b6000341161034a576040517f08c379a00000000000000000000000000000000000000000000000000000000081526004016103419061070d565b60405180910390fd5b346001600082825461035c9190610525565b92505081905550565b6000819050919050565b61037881610365565b82525050565b6000602082019050610393600083018461036f565b92915050565b600073ffffffffffffffffffffffffffffffffffffffff82169050919050565b60006103c482610399565b9050919050565b6103d4816103b9565b82525050565b60006020820190506103ef60008301846103cb565b92915050565b600080fd5b610403816103b9565b811461040e57600080fd5b50565b600081359050610420816103fa565b92915050565b60006020828403121561043c5761043b6103f5565b5b600061044a84828501610411565b91505092915050565b600082825260208201905092915050565b7f4f6e6c792074686520636f6d70616e792063616e20696e69746961746520776960008201527f746864726177616c000000000000000000000000000000000000000000000000602082015250565b60006104c0602883610453565b91506104cb82610464565b604082019050919050565b600060208201905081810360008301526104ef816104b3565b9050919050565b7f4e487b7100000000000000000000000000000000000000000000000000000000600052601160045260246000fd5b600061053082610365565b915061053b83610365565b9250828201905080821115610553576105526104f6565b5b92915050565b7f323420686f757273206d7573742070617373206265747765656e20776974686460008201527f726177616c730000000000000000000000000000000000000000000000000000602082015250565b60006105b5602683610453565b91506105c082610559565b604082019050919050565b600060208201905081810360008301526105e4816105a8565b9050919050565b60006105f682610365565b915061060183610365565b925082820261060f81610365565b91508282048414831517610626576106256104f6565b5b5092915050565b7f4e487b7100000000000000000000000000000000000000000000000000000000600052601260045260246000fd5b600061066782610365565b915061067283610365565b9250826106825761068161062d565b5b828204905092915050565b600061069882610365565b91506106a383610365565b92508282039050818111156106bb576106ba6104f6565b5b92915050565b7f4e6f2076616c7565206465706f73697465640000000000000000000000000000600082015250565b60006106f7601283610453565b9150610702826106c1565b602082019050919050565b60006020820190508181036000830152610726816106ea565b905091905056fea26469706673582212207a27202847b80161db5ca3f0921c3e8fc93f9c2b035208663597abd0cc32f66664736f6c63430008130033",
  "immutableReferences": {},
  "source": "// contracts/GamePot.sol\n\npragma solidity ^0.8.0;\n\ncontract GamePot {\n    address payable public companyWallet;\n    uint256 public potAmount;\n    uint256 public lastWithdrawal;\n\n    constructor(address payable _companyWallet) {\n        companyWallet = _companyWallet;\n        lastWithdrawal = block.timestamp;\n    }\n\n    function deposit() public payable {\n        require(msg.value > 0, \"No value deposited\");\n        potAmount += msg.value;\n    }\n\n    function withdraw(address payable winner) external {\n        require(msg.sender == companyWallet, \"Only the company can initiate withdrawal\");\n        require(block.timestamp >= lastWithdrawal + 1 days, \"24 hours must pass between withdrawals\");\n        \n        uint256 companyFee = (potAmount * 5) / 100;\n        uint256 winnerAmount = potAmount - companyFee;\n        \n        companyWallet.transfer(companyFee);\n        winner.transfer(winnerAmount);\n        \n        lastWithdrawal = block.timestamp;\n        potAmount = 0;\n    }\n}\n\n",
  "sourcePath": "/Users/loko/Documents/GitHub/crypto-run/smart-contract/contracts/GamePot.sol",
  "compiler": {
    "name": "solc",
    "version": "0.8.19+commit.7dd6d404.Emscripten.clang"
  },
  "schemaVersion": "3.4.13",
  "updatedAt": "2023-04-12T16:57:51.533Z",
  "devdoc": {
    "kind": "dev",
    "methods": {},
    "version": 1
  },
  "userdoc": {
    "kind": "user",
    "methods": {},
    "version": 1
  }
}